HD0000000053906111120161703093.0
9999007916316009590 30400                                              ONG       TRUNG               NGUYEN THANH              NGUYEN THANH TRUNG        19880606HCM  704M0704201010.                                            X.KY DONG HUYEN KY ANH                                                                                                                 VHTI 084       704.                                            X.KY DONG HUYEN KY ANH                       .                                            .                                            VHTI 084       7040971500988          0971500988          0                                                 001                                                                                                                                                                                                                              084            704                    000010000000183509521      01                    X              XXXXXXXXXXXXXXX                       0000   00000000000000000000000                                                                                                                                                                    F                                                                           00001  0000100000000                                                               00000000000000000000000000000000                                                  00                     00000000000000000                                                                                                                       CVINHNTKYA              016                                                                        000                                                                                                                                                                                                                            084                                                                           7916316009590                 6522858                                       01          0002    0000                 NGUYEN THANH TRUNG                                                                             00000000001000000000000000
9999003116316010050 30402                                              BA        THUY                PHAM THI THANH            PHAM THI THANH THUY       19811031HN   704F0704201010CC DREAMHOME                                 P14 GO VAP                                                                                                                             VHCM 084       704CC DREAMHOME                                 P14 GO VAP                                                                                                                             VHCM 084       7040984138502          0984138502          NGADT.SGD@ACB.COM.VN                              001                                          468 THONG NHAT                                                                                                                                                                      084       VHCM 7040984138502          000020000000023269613      01                    X              0                                     1002   80889939               NGA                 DUONG THI NGA             DUONG THI NGA                 R                   11051986NGUYEN DOAN MINH HIEU                   R                   F                                                  0                        00001  0000100000000                                                               0000000000000000000000000000003                                                                          00000000000000000                                        0                                                          C                   CHUONGBTTBTH            016                                                                        000NGUYEN DOAN MINH HIEU                   27/5 THONG NHAT                              GO VAP                                       HCM                                                                                       084                                                                           3116316010051                 9386568                                       02NGUYEN DOA000300011002                 PHAM THI THANH THUY                               20                  80889939                210000000001000000000000000
9999007916316009590 30400                                              BA        LO                  CAO THI                   CAO THI LO                19880606DN   704M0704201010.                                            X.KY DONG HUYEN KY ANH                                                                                                                 VHTI 084       704.                                            X.KY DONG HUYEN KY ANH                       .                                            .                                            VHTI 084       7040971500988          0952342534          0                                                 001                                                                                                                                                                                                                              084            704                    000030000000098776575      01                    X              XXXXXXXXXXXXXXX                       0000   00000000000000000000000                                                                                                                                                                    F                                                                           00001  0000100000000                                                               00000000000000000000000000000000                                                  00                     00000000000000000                                                                                                                       CVINHNTKYA              016                                                                        000                                                                                                                                                                                                                            084                                                                           1234567890123                 1234737                                       01          0002    0000                 CAO THI LO                                                                                     00000000002000000000000000
9999004212117009493 304011000050186301100                              ONG       LONG                NGUYEN PHAM               NGUYEN PHAM LONG          19700920BMT  704M0704201010104/9A NGUYEN THAI SON                       P. 3 QUAN GO VAP                                                                                                                       VHCM 084       704                                                                                                                                                                                    VHCM 084       70438957024            0908002282          0                                                 00101                                                                                                                                                                                                                            084            704                    000040000000022654385      01                    X              X                                     0000   00000000000000000000000THY                 NGUYEN PHAM HUONG         NG PHAM HUONG THY             D                   18012001VO BA HUYEN TRANG                       L                   F                                                  PHAM THI THU LINH        00001  0002000000000                                                               0000000000000000000000000000003                                                                          00000000000000000                                        0                                                                              CCONTNTTT                                                                                          000VO BA HUYEN TRANG                       12/10B CHANH HUNG                            P.4 QUAN 8                                                                                                                             084                                                                           4212117009493                 21312                                         04VO BA HUYE000300010000                 NG PHAM HUONG THY                                                                              00000000020000000000000000
9999004212117009674 30400                                              ONG       TAM                 LE VAN                    LE VAN TAM                19700920BMT  704M0704201010104/9A NGUYEN THAI SON                       P. 3 QUAN GO VAP                                                                                                                       VHCM 084       704                                                                                                                                                                                    VHCM 084       70438957024            0908002282          0                                                 00101                                                                                                                                                                                                                            084            704                    000040000000095472423      01                    X              X                                     0000   00000000000000000000000THY                 NGUYEN PHAM HUONG         NG PHAM HUONG THY             D                   18012001VO BA HUYEN TRANG                       L                   F                                                  PHAM THI THU LINH        00001  0002000000000                                                               0000000000000000000000000000003                                                                          00000000000000000                                        0                                                                              CCONTNTTT                                                                                          000VO BA HUYEN TRANG                       12/10B CHANH HUNG                            P.4 QUAN 8                                                                                                                             084                                                                           5342534609493                 1265437                                       04VO BA HUYE000300010000                 NG PHAM HUONG THY                                                                              00000000020000000000000000
EOF000003